{
  "contractName": "LendingPlatform",
  "abi": [
    {
      "inputs": [
        {
          "internalType": "uint256",
          "name": "_lendingRate",
          "type": "uint256"
        }
      ],
      "stateMutability": "nonpayable",
      "type": "constructor"
    },
    {
      "anonymous": false,
      "inputs": [
        {
          "indexed": true,
          "internalType": "address",
          "name": "borrower",
          "type": "address"
        },
        {
          "indexed": false,
          "internalType": "uint256",
          "name": "amount",
          "type": "uint256"
        }
      ],
      "name": "Borrowed",
      "type": "event"
    },
    {
      "anonymous": false,
      "inputs": [
        {
          "indexed": true,
          "internalType": "address",
          "name": "lender",
          "type": "address"
        },
        {
          "indexed": false,
          "internalType": "uint256",
          "name": "amount",
          "type": "uint256"
        }
      ],
      "name": "Lent",
      "type": "event"
    },
    {
      "anonymous": false,
      "inputs": [
        {
          "indexed": true,
          "internalType": "address",
          "name": "borrower",
          "type": "address"
        },
        {
          "indexed": false,
          "internalType": "uint256",
          "name": "amount",
          "type": "uint256"
        }
      ],
      "name": "Repaid",
      "type": "event"
    },
    {
      "inputs": [],
      "name": "lendingRate",
      "outputs": [
        {
          "internalType": "uint256",
          "name": "",
          "type": "uint256"
        }
      ],
      "stateMutability": "view",
      "type": "function",
      "constant": true
    },
    {
      "inputs": [
        {
          "internalType": "address",
          "name": "",
          "type": "address"
        },
        {
          "internalType": "uint256",
          "name": "",
          "type": "uint256"
        }
      ],
      "name": "loans",
      "outputs": [
        {
          "internalType": "uint256",
          "name": "amount",
          "type": "uint256"
        },
        {
          "internalType": "uint256",
          "name": "interestRate",
          "type": "uint256"
        },
        {
          "internalType": "address",
          "name": "borrower",
          "type": "address"
        },
        {
          "internalType": "bool",
          "name": "isClosed",
          "type": "bool"
        }
      ],
      "stateMutability": "view",
      "type": "function",
      "constant": true
    },
    {
      "inputs": [],
      "name": "owner",
      "outputs": [
        {
          "internalType": "address",
          "name": "",
          "type": "address"
        }
      ],
      "stateMutability": "view",
      "type": "function",
      "constant": true
    },
    {
      "inputs": [],
      "name": "totalLentAmount",
      "outputs": [
        {
          "internalType": "uint256",
          "name": "",
          "type": "uint256"
        }
      ],
      "stateMutability": "view",
      "type": "function",
      "constant": true
    },
    {
      "inputs": [
        {
          "internalType": "uint256",
          "name": "_amount",
          "type": "uint256"
        }
      ],
      "name": "borrow",
      "outputs": [],
      "stateMutability": "nonpayable",
      "type": "function"
    },
    {
      "inputs": [],
      "name": "lend",
      "outputs": [],
      "stateMutability": "payable",
      "type": "function",
      "payable": true
    },
    {
      "inputs": [
        {
          "internalType": "uint256",
          "name": "_loanIndex",
          "type": "uint256"
        }
      ],
      "name": "repay",
      "outputs": [],
      "stateMutability": "payable",
      "type": "function",
      "payable": true
    },
    {
      "inputs": [],
      "name": "getContractBalance",
      "outputs": [
        {
          "internalType": "uint256",
          "name": "",
          "type": "uint256"
        }
      ],
      "stateMutability": "view",
      "type": "function",
      "constant": true
    }
  ],
  "bytecode": "0x608060405234801561001057600080fd5b506040516107cd3803806107cd83398101604081905261002f91610049565b600080546001600160a01b03191633179055600155610062565b60006020828403121561005b57600080fd5b5051919050565b61075c806100716000396000f3fe60806040526004361061007b5760003560e01c80638da5cb5b1161004e5780638da5cb5b146100e757806397dffc611461011f57806398c61c3714610127578063c5ebeaec1461017857600080fd5b8063371fd8e61461008057806343f7f74014610095578063449e765d146100be5780636f9fb98a146100d4575b600080fd5b61009361008e366004610650565b610198565b005b3480156100a157600080fd5b506100ab60025481565b6040519081526020015b60405180910390f35b3480156100ca57600080fd5b506100ab60015481565b3480156100e057600080fd5b50476100ab565b3480156100f357600080fd5b50600054610107906001600160a01b031681565b6040516001600160a01b0390911681526020016100b5565b610093610398565b34801561013357600080fd5b50610147610142366004610669565b610441565b6040516100b5949392919093845260208401929092526001600160a01b031660408301521515606082015260800190565b34801561018457600080fd5b50610093610193366004610650565b610498565b600034116101fd5760405162461bcd60e51b815260206004820152602760248201527f52657061796d656e7420616d6f756e74206d75737420626520677265617465726044820152660207468616e20360cc1b60648201526084015b60405180910390fd5b33600090815260036020526040812080548390811061021e5761021e6106a1565b906000526020600020906003020190508060020160149054906101000a900460ff16156102865760405162461bcd60e51b8152602060048201526016602482015275131bd85b881a5cc8185b1c9958591e4818db1bdcd95960521b60448201526064016101f4565b8054600182015460009060649061029d90846106cd565b6102a791906106ec565b905060006102b5828461070e565b90508034146103065760405162461bcd60e51b815260206004820152601a60248201527f496e636f72726563742072657061796d656e7420616d6f756e7400000000000060448201526064016101f4565b600080546040516001600160a01b039091169184156108fc02918591818181858888f1935050505015801561033f573d6000803e3d6000fd5b5060028401805460ff60a01b1916600160a01b17905560405133907f0516911bcc3a0a7412a44601057c0a0a1ec628bde049a84284bc428866534488906103899086815260200190565b60405180910390a25050505050565b600034116103f35760405162461bcd60e51b815260206004820152602260248201527f4c656e7420616d6f756e74206d7573742062652067726561746572207468616e604482015261020360f41b60648201526084016101f4565b3460026000828254610405919061070e565b909155505060405134815233907f26ff3f6dedac6d273c293b8c866e073f40896739d99ad513862fe7ba70cf63ca9060200160405180910390a2565b6003602052816000526040600020818154811061045d57600080fd5b60009182526020909120600390910201805460018201546002909201549093509091506001600160a01b03811690600160a01b900460ff1684565b600081116104f75760405162461bcd60e51b815260206004820152602660248201527f426f72726f77656420616d6f756e74206d75737420626520677265617465722060448201526507468616e20360d41b60648201526084016101f4565b600060646001548361050991906106cd565b61051391906106ec565b90506000610521828461070e565b9050478111156105735760405162461bcd60e51b815260206004820152601f60248201527f4e6f7420656e6f75676820636f6c6c61746572616c20746f20626f72726f770060448201526064016101f4565b604080516080810182528481526001805460208084019182523384860181815260006060870181815292815260038085529781208054808801825590825293812087519490980290970192835592519382019390935590516002918201805493511515600160a01b026001600160a81b03199094166001600160a01b0392909216919091179290921790915580549192869261061090849061070e565b909155505060405184815233907fac59582e5396aca512fa873a2047e7f4c80f8f55d4a06cb34a78a0187f62719f9060200160405180910390a250505050565b60006020828403121561066257600080fd5b5035919050565b6000806040838503121561067c57600080fd5b82356001600160a01b038116811461069357600080fd5b946020939093013593505050565b634e487b7160e01b600052603260045260246000fd5b634e487b7160e01b600052601160045260246000fd5b60008160001904831182151516156106e7576106e76106b7565b500290565b60008261070957634e487b7160e01b600052601260045260246000fd5b500490565b60008219821115610721576107216106b7565b50019056fea264697066735822122027d2c39d2751811a1f267f8505831d209f9f8607ff8bcaa74e68110a584cb4c964736f6c634300080d0033",
  "immutableReferences": {},
  "source": "// SPDX-License-Identifier: MIT\r\npragma solidity ^0.8.0;\r\n\r\ncontract LendingPlatform {\r\n    address public owner;\r\n    uint256 public lendingRate; // Static interest rate in percentage\r\n    uint256 public totalLentAmount;\r\n\r\n    struct Loan {\r\n        uint256 amount;\r\n        uint256 interestRate;\r\n        address borrower;\r\n        bool isClosed;\r\n    }\r\n\r\n    mapping(address => Loan[]) public loans;\r\n\r\n    event Borrowed(address indexed borrower, uint256 amount);\r\n    event Lent(address indexed lender, uint256 amount);\r\n    event Repaid(address indexed borrower, uint256 amount);\r\n\r\n    constructor(uint256 _lendingRate) {\r\n        owner = msg.sender;\r\n        lendingRate = _lendingRate;\r\n    }\r\n\r\n    modifier onlyOwner() {\r\n        require(msg.sender == owner, \"Only the owner can call this function\");\r\n        _;\r\n    }\r\n\r\n    function borrow(uint256 _amount) external {\r\n        require(_amount > 0, \"Borrowed amount must be greater than 0\");\r\n\r\n        // Calculate the interest to be repaid\r\n        uint256 interest = (_amount * lendingRate) / 100;\r\n        uint256 totalToRepay = _amount + interest;\r\n\r\n        // Ensure the borrower has enough collateral\r\n        require(totalToRepay <= address(this).balance, \"Not enough collateral to borrow\");\r\n\r\n        // Create a new loan\r\n        Loan memory newLoan = Loan(_amount, lendingRate, msg.sender, false);\r\n        loans[msg.sender].push(newLoan);\r\n        totalLentAmount += _amount;\r\n\r\n        // Emit the Borrowed event\r\n        emit Borrowed(msg.sender, _amount);\r\n    }\r\n\r\n    function lend() external payable {\r\n        require(msg.value > 0, \"Lent amount must be greater than 0\");\r\n\r\n        // Update total lent amount\r\n        totalLentAmount += msg.value;\r\n\r\n        // Emit the Lent event\r\n        emit Lent(msg.sender, msg.value);\r\n    }\r\n\r\n    function repay(uint256 _loanIndex) external payable {\r\n        require(msg.value > 0, \"Repayment amount must be greater than 0\");\r\n\r\n        Loan storage loan = loans[msg.sender][_loanIndex];\r\n        require(!loan.isClosed, \"Loan is already closed\");\r\n\r\n        uint256 amountToRepay = loan.amount;\r\n        uint256 interest = (amountToRepay * loan.interestRate) / 100;\r\n        uint256 totalToRepay = amountToRepay + interest;\r\n\r\n        require(msg.value == totalToRepay, \"Incorrect repayment amount\");\r\n\r\n        // Transfer the interest to the contract owner\r\n        payable(owner).transfer(interest);\r\n\r\n        // Mark the loan as closed\r\n        loan.isClosed = true;\r\n\r\n        // Emit the Repaid event\r\n        emit Repaid(msg.sender, amountToRepay);\r\n    }\r\n\r\n    function getContractBalance() external view returns (uint256) {\r\n        return address(this).balance;\r\n    }\r\n}\r\n",
  "sourcePath": "C:\\Users\\agraw\\Downloads\\code\\contracts\\LendingPlatform.sol",
  "compiler": {
    "name": "solc",
    "version": "0.8.13+commit.abaa5c0e.Emscripten.clang"
  },
  "schemaVersion": "3.4.3",
  "updatedAt": "2023-09-01T21:10:58.506Z",
  "networkType": "ethereum",
  "devdoc": {
    "kind": "dev",
    "methods": {},
    "version": 1
  },
  "userdoc": {
    "kind": "user",
    "methods": {},
    "version": 1
  }
}