{
  "contractName": "LendingPlatform",
  "abi": [
    {
      "inputs": [
        {
          "internalType": "uint256",
          "name": "_lendingRate",
          "type": "uint256"
        }
      ],
      "stateMutability": "nonpayable",
      "type": "constructor"
    },
    {
      "anonymous": false,
      "inputs": [
        {
          "indexed": true,
          "internalType": "address",
          "name": "user",
          "type": "address"
        },
        {
          "indexed": false,
          "internalType": "uint256",
          "name": "newBalance",
          "type": "uint256"
        }
      ],
      "name": "BalanceSet",
      "type": "event"
    },
    {
      "anonymous": false,
      "inputs": [
        {
          "indexed": true,
          "internalType": "address",
          "name": "borrower",
          "type": "address"
        },
        {
          "indexed": true,
          "internalType": "address",
          "name": "lender",
          "type": "address"
        },
        {
          "indexed": false,
          "internalType": "uint256",
          "name": "amount",
          "type": "uint256"
        }
      ],
      "name": "Borrowed",
      "type": "event"
    },
    {
      "anonymous": false,
      "inputs": [
        {
          "indexed": true,
          "internalType": "address",
          "name": "borrower",
          "type": "address"
        },
        {
          "indexed": true,
          "internalType": "address",
          "name": "lender",
          "type": "address"
        },
        {
          "indexed": false,
          "internalType": "uint256",
          "name": "amount",
          "type": "uint256"
        }
      ],
      "name": "Repaid",
      "type": "event"
    },
    {
      "inputs": [],
      "name": "lendingRate",
      "outputs": [
        {
          "internalType": "uint256",
          "name": "",
          "type": "uint256"
        }
      ],
      "stateMutability": "view",
      "type": "function",
      "constant": true
    },
    {
      "inputs": [
        {
          "internalType": "address",
          "name": "",
          "type": "address"
        },
        {
          "internalType": "uint256",
          "name": "",
          "type": "uint256"
        }
      ],
      "name": "loans",
      "outputs": [
        {
          "internalType": "uint256",
          "name": "amount",
          "type": "uint256"
        },
        {
          "internalType": "uint256",
          "name": "interestRate",
          "type": "uint256"
        },
        {
          "internalType": "address",
          "name": "lender",
          "type": "address"
        },
        {
          "internalType": "address",
          "name": "borrower",
          "type": "address"
        },
        {
          "internalType": "bool",
          "name": "isClosed",
          "type": "bool"
        }
      ],
      "stateMutability": "view",
      "type": "function",
      "constant": true
    },
    {
      "inputs": [],
      "name": "owner",
      "outputs": [
        {
          "internalType": "address",
          "name": "",
          "type": "address"
        }
      ],
      "stateMutability": "view",
      "type": "function",
      "constant": true
    },
    {
      "inputs": [
        {
          "internalType": "address",
          "name": "",
          "type": "address"
        }
      ],
      "name": "users",
      "outputs": [
        {
          "internalType": "uint256",
          "name": "balance",
          "type": "uint256"
        }
      ],
      "stateMutability": "view",
      "type": "function",
      "constant": true
    },
    {
      "inputs": [
        {
          "internalType": "uint256",
          "name": "_initialBalance",
          "type": "uint256"
        }
      ],
      "name": "createUserAccount",
      "outputs": [],
      "stateMutability": "nonpayable",
      "type": "function"
    },
    {
      "inputs": [
        {
          "internalType": "address",
          "name": "_borrower",
          "type": "address"
        },
        {
          "internalType": "uint256",
          "name": "_amount",
          "type": "uint256"
        }
      ],
      "name": "lendToUser",
      "outputs": [],
      "stateMutability": "nonpayable",
      "type": "function"
    },
    {
      "inputs": [
        {
          "internalType": "address",
          "name": "_lender",
          "type": "address"
        },
        {
          "internalType": "uint256",
          "name": "_amount",
          "type": "uint256"
        }
      ],
      "name": "borrowFromUser",
      "outputs": [],
      "stateMutability": "nonpayable",
      "type": "function"
    },
    {
      "inputs": [
        {
          "internalType": "uint256",
          "name": "_loanIndex",
          "type": "uint256"
        }
      ],
      "name": "repayToLender",
      "outputs": [],
      "stateMutability": "payable",
      "type": "function",
      "payable": true
    },
    {
      "inputs": [],
      "name": "getUserBalance",
      "outputs": [
        {
          "internalType": "uint256",
          "name": "",
          "type": "uint256"
        }
      ],
      "stateMutability": "view",
      "type": "function",
      "constant": true
    },
    {
      "inputs": [
        {
          "internalType": "uint256",
          "name": "_newBalance",
          "type": "uint256"
        }
      ],
      "name": "setUserBalance",
      "outputs": [],
      "stateMutability": "nonpayable",
      "type": "function"
    },
    {
      "inputs": [],
      "name": "getContractBalance",
      "outputs": [
        {
          "internalType": "uint256",
          "name": "",
          "type": "uint256"
        }
      ],
      "stateMutability": "view",
      "type": "function",
      "constant": true
    }
  ],
  "bytecode": "0x608060405234801561001057600080fd5b50604051610c9f380380610c9f83398101604081905261002f91610049565b600080546001600160a01b03191633179055600155610062565b60006020828403121561005b57600080fd5b5051919050565b610c2e806100716000396000f3fe60806040526004361061009c5760003560e01c80638e90e215116100645780638e90e2151461015757806398c61c3714610177578063a87430ba146101cd578063b7013dc1146101fa578063d703bf1a1461021c578063f5c0a0ff1461023c57600080fd5b8063449e765d146100a15780636f9fb98a146100ca57806370b4e22f146100dd57806386fb9f93146100ff5780638da5cb5b1461011f575b600080fd5b3480156100ad57600080fd5b506100b760015481565b6040519081526020015b60405180910390f35b3480156100d657600080fd5b50476100b7565b3480156100e957600080fd5b506100fd6100f8366004610adb565b61024f565b005b34801561010b57600080fd5b506100fd61011a366004610b10565b6102cc565b34801561012b57600080fd5b5060005461013f906001600160a01b031681565b6040516001600160a01b0390911681526020016100c1565b34801561016357600080fd5b506100fd610172366004610adb565b610552565b34801561018357600080fd5b50610197610192366004610b10565b6105a1565b6040805195865260208601949094526001600160a01b03928316938501939093521660608301521515608082015260a0016100c1565b3480156101d957600080fd5b506100b76101e8366004610b3a565b60036020526000908152604090205481565b34801561020657600080fd5b50336000908152600360205260409020546100b7565b34801561022857600080fd5b506100fd610237366004610b10565b610600565b6100fd61024a366004610adb565b61087c565b61025d565b60405180910390fd5b33600090815260036020526040902054156102ba5760405162461bcd60e51b815260206004820152601b60248201527f55736572206163636f756e7420616c72656164792065786973747300000000006044820152606401610254565b33600090815260036020526040902055565b600081116103275760405162461bcd60e51b815260206004820152602260248201527f4c656e7420616d6f756e74206d7573742062652067726561746572207468616e604482015261020360f41b6064820152608401610254565b6001600160a01b03821661037d5760405162461bcd60e51b815260206004820152601e60248201527f426f72726f7765722061646472657373206d7573742062652076616c696400006044820152606401610254565b33600090815260036020526040808220546001600160a01b0385168352912054828210156103e25760405162461bcd60e51b81526020600482015260126024820152714e6f7420656e6f7567682062616c616e636560701b6044820152606401610254565b60006064600154856103f49190610b72565b6103fe9190610b91565b9050600061040c8286610bb3565b6040805160a081018252878152600180546020808401918252338486018181526001600160a01b038e811660608801818152600060808a0181815292815260028088528b82208054808c0182559083528883208c51600490920201908155985199890199909955935197870180549884166001600160a01b03199099169890981790975595516003958601805497511515600160a01b026001600160a81b0319909816919092161795909517909455835252918220805493945090928892906104d6908490610bcb565b90915550506001600160a01b03871660009081526003602052604081208054849290610503908490610bb3565b909155505060405186815233906001600160a01b038916907f3fc499aeb0bb1cb58b6de8b02b3f86f4e7394e9690bef0110e32ced8a5631045906020015b60405180910390a350505050505050565b3360008181526003602052604090819020839055517faca675004c66aff66f6e84aac634806e6c3550b1a6ba29fc8e1c1471ad1babf1906105969084815260200190565b60405180910390a250565b600260205281600052604060002081815481106105bd57600080fd5b6000918252602090912060049091020180546001820154600283015460039093015491945092506001600160a01b0391821691811690600160a01b900460ff1685565b6000811161065f5760405162461bcd60e51b815260206004820152602660248201527f426f72726f77656420616d6f756e74206d75737420626520677265617465722060448201526507468616e20360d41b6064820152608401610254565b6001600160a01b0382166106b55760405162461bcd60e51b815260206004820152601c60248201527f4c656e6465722061646472657373206d7573742062652076616c6964000000006044820152606401610254565b33600090815260036020526040808220546001600160a01b03851683529120548281101561071a5760405162461bcd60e51b81526020600482015260126024820152714e6f7420656e6f7567682062616c616e636560701b6044820152606401610254565b600060646001548561072c9190610b72565b6107369190610b91565b905060006107448286610bb3565b6040805160a0810182528781526001805460208084019182526001600160a01b03808d16858701908152336060870181815260006080890181815283825260028088528b83208054808c0182559084528884208c51600490920201908155985199890199909955935197870180549886166001600160a01b031990991698909817909755516003958601805493511515600160a01b026001600160a81b03199094169190941617919091179091558352529182208054939450909284929061080d908490610bb3565b90915550506001600160a01b0387166000908152600360205260408120805488929061083a908490610bcb565b90915550506040518681526001600160a01b0388169033907f3fc499aeb0bb1cb58b6de8b02b3f86f4e7394e9690bef0110e32ced8a563104590602001610541565b600034116108dc5760405162461bcd60e51b815260206004820152602760248201527f52657061796d656e7420616d6f756e74206d75737420626520677265617465726044820152660207468616e20360cc1b6064820152608401610254565b3360009081526002602052604081208054839081106108fd576108fd610be2565b906000526020600020906004020190508060030160149054906101000a900460ff16156109655760405162461bcd60e51b8152602060048201526016602482015275131bd85b881a5cc8185b1c9958591e4818db1bdcd95960521b6044820152606401610254565b8054600182015460009060649061097c9084610b72565b6109869190610b91565b905060006109948284610bb3565b90508034146109e55760405162461bcd60e51b815260206004820152601a60248201527f496e636f72726563742072657061796d656e7420616d6f756e740000000000006044820152606401610254565b60028401546040516001600160a01b039091169083156108fc029084906000818181858888f19350505050158015610a21573d6000803e3d6000fd5b506003808501805460ff60a01b1916600160a01b179055336000908152602091909152604081208054839290610a58908490610bcb565b909155505060028401546001600160a01b031660009081526003602052604081208054859290610a89908490610bb3565b909155505060028401546040518481526001600160a01b039091169033907f0a3fbbea70e93f2daafa3102f5c9a1b8315e6d7a1e43e4bc020bc1162327470a9060200160405180910390a35050505050565b600060208284031215610aed57600080fd5b5035919050565b80356001600160a01b0381168114610b0b57600080fd5b919050565b60008060408385031215610b2357600080fd5b610b2c83610af4565b946020939093013593505050565b600060208284031215610b4c57600080fd5b610b5582610af4565b9392505050565b634e487b7160e01b600052601160045260246000fd5b6000816000190483118215151615610b8c57610b8c610b5c565b500290565b600082610bae57634e487b7160e01b600052601260045260246000fd5b500490565b60008219821115610bc657610bc6610b5c565b500190565b600082821015610bdd57610bdd610b5c565b500390565b634e487b7160e01b600052603260045260246000fdfea2646970667358221220ae972673b3105d90ec466ab949ab137ce2d0bd0b250b2abc74fae774b00c3dae64736f6c634300080d0033",
  "immutableReferences": {},
  "source": "// SPDX-License-Identifier: MIT\r\npragma solidity ^0.8.0;\r\n\r\ncontract LendingPlatform {\r\n    address public owner;\r\n    uint256 public lendingRate; // Static interest rate in percentage\r\n\r\n    struct Loan {\r\n        uint256 amount;\r\n        uint256 interestRate;\r\n        address lender;\r\n        address borrower;\r\n        bool isClosed;\r\n    }\r\n\r\n    struct User {\r\n        uint256 balance; // Single balance per user\r\n    }\r\n\r\n    mapping(address => Loan[]) public loans;\r\n    mapping(address => User) public users; // Mapping to store user balances\r\n\r\n    event Borrowed(address indexed borrower, address indexed lender, uint256 amount);\r\n    event Repaid(address indexed borrower, address indexed lender, uint256 amount);\r\n    event BalanceSet(address indexed user, uint256 newBalance);\r\n\r\n    constructor(uint256 _lendingRate) {\r\n        owner = msg.sender;\r\n        lendingRate = _lendingRate;\r\n    }\r\n\r\n    modifier onlyOwner() {\r\n        require(msg.sender == owner, \"Only the owner can call this function\");\r\n        _;\r\n    }\r\n\r\n    // Function to create a user account with initial balance\r\n    function createUserAccount(uint256 _initialBalance) external {\r\n        require(_initialBalance >= 0, \"Initial balance must be non-negative\");\r\n\r\n        require(users[msg.sender].balance == 0, \"User account already exists\");\r\n\r\n        users[msg.sender].balance = _initialBalance;\r\n    }\r\n\r\n    function lendToUser(address _borrower, uint256 _amount) external {\r\n        require(_amount > 0, \"Lent amount must be greater than 0\");\r\n        require(_borrower != address(0), \"Borrower address must be valid\");\r\n\r\n        uint256 lenderBalance = users[msg.sender].balance;\r\n        uint256 borrowerBalance = users[_borrower].balance;\r\n\r\n        require(lenderBalance >= _amount, \"Not enough balance\");\r\n\r\n        // Calculate the interest to be repaid\r\n        uint256 interest = (_amount * lendingRate) / 100;\r\n        uint256 totalToRepay = _amount + interest;\r\n\r\n        // Create a new loan\r\n        Loan memory newLoan = Loan(_amount, lendingRate, msg.sender, _borrower, false);\r\n        loans[_borrower].push(newLoan);\r\n\r\n        // Update user balances\r\n        users[msg.sender].balance -= _amount;\r\n        users[_borrower].balance += totalToRepay;\r\n\r\n        // Emit the Borrowed event\r\n        emit Borrowed(_borrower, msg.sender, _amount);\r\n    }\r\n\r\n    function borrowFromUser(address _lender, uint256 _amount) external {\r\n        require(_amount > 0, \"Borrowed amount must be greater than 0\");\r\n        require(_lender != address(0), \"Lender address must be valid\");\r\n\r\n        uint256 borrowerBalance = users[msg.sender].balance;\r\n        uint256 lenderBalance = users[_lender].balance;\r\n\r\n        require(lenderBalance >= _amount, \"Not enough balance\");\r\n\r\n        // Calculate the interest to be repaid\r\n        uint256 interest = (_amount * lendingRate) / 100;\r\n        uint256 totalToRepay = _amount + interest;\r\n\r\n        // Create a new loan\r\n        Loan memory newLoan = Loan(_amount, lendingRate, _lender, msg.sender, false);\r\n        loans[msg.sender].push(newLoan);\r\n\r\n        // Update user balances\r\n        users[msg.sender].balance += totalToRepay;\r\n        users[_lender].balance -= _amount;\r\n\r\n        // Emit the Borrowed event\r\n        emit Borrowed(msg.sender, _lender, _amount);\r\n    }\r\n\r\n    function repayToLender(uint256 _loanIndex) external payable {\r\n        require(msg.value > 0, \"Repayment amount must be greater than 0\");\r\n\r\n        Loan storage loan = loans[msg.sender][_loanIndex];\r\n        require(!loan.isClosed, \"Loan is already closed\");\r\n\r\n        uint256 amountToRepay = loan.amount;\r\n        uint256 interest = (amountToRepay * loan.interestRate) / 100;\r\n        uint256 totalToRepay = amountToRepay + interest;\r\n\r\n        require(msg.value == totalToRepay, \"Incorrect repayment amount\");\r\n\r\n        // Transfer the interest to the lender\r\n        payable(loan.lender).transfer(interest);\r\n\r\n        // Mark the loan as closed\r\n        loan.isClosed = true;\r\n\r\n        // Update user balances\r\n        users[msg.sender].balance -= totalToRepay;\r\n        users[loan.lender].balance += amountToRepay;\r\n\r\n        // Emit the Repaid event\r\n        emit Repaid(msg.sender, loan.lender, amountToRepay);\r\n    }\r\n\r\n    // Function to get the user's balance\r\n    function getUserBalance() external view returns (uint256) {\r\n        return users[msg.sender].balance;\r\n    }\r\n        // Function to set the user's balance\r\n    function setUserBalance(uint256 _newBalance) external {\r\n        users[msg.sender].balance = _newBalance;\r\n        emit BalanceSet(msg.sender, _newBalance);\r\n    }\r\n\r\n\r\n    function getContractBalance() external view returns (uint256) {\r\n        return address(this).balance;\r\n    }\r\n}\r\n",
  "sourcePath": "D:\\blockchain\\blockchain_speraax\\contracts\\LendingPlatform.sol",
  "compiler": {
    "name": "solc",
    "version": "0.8.13+commit.abaa5c0e.Emscripten.clang"
  },
  "schemaVersion": "3.4.3",
  "updatedAt": "2023-09-02T07:49:14.600Z",
  "networkType": "ethereum",
  "devdoc": {
    "kind": "dev",
    "methods": {},
    "version": 1
  },
  "userdoc": {
    "kind": "user",
    "methods": {},
    "version": 1
  }
}