{
  "contractName": "LendingContract",
  "abi": [
    {
      "inputs": [
        {
          "internalType": "uint256",
          "name": "_lendingRate",
          "type": "uint256"
        }
      ],
      "stateMutability": "nonpayable",
      "type": "constructor"
    },
    {
      "anonymous": false,
      "inputs": [
        {
          "indexed": true,
          "internalType": "address",
          "name": "borrower",
          "type": "address"
        },
        {
          "indexed": false,
          "internalType": "uint256",
          "name": "amount",
          "type": "uint256"
        }
      ],
      "name": "Borrowed",
      "type": "event"
    },
    {
      "anonymous": false,
      "inputs": [
        {
          "indexed": true,
          "internalType": "address",
          "name": "lender",
          "type": "address"
        },
        {
          "indexed": false,
          "internalType": "uint256",
          "name": "amount",
          "type": "uint256"
        }
      ],
      "name": "Lent",
      "type": "event"
    },
    {
      "inputs": [
        {
          "internalType": "address",
          "name": "",
          "type": "address"
        }
      ],
      "name": "lenders",
      "outputs": [
        {
          "internalType": "uint256",
          "name": "lentAmount",
          "type": "uint256"
        },
        {
          "internalType": "bool",
          "name": "exists",
          "type": "bool"
        }
      ],
      "stateMutability": "view",
      "type": "function"
    },
    {
      "inputs": [],
      "name": "lendingRate",
      "outputs": [
        {
          "internalType": "uint256",
          "name": "",
          "type": "uint256"
        }
      ],
      "stateMutability": "view",
      "type": "function"
    },
    {
      "inputs": [],
      "name": "owner",
      "outputs": [
        {
          "internalType": "address",
          "name": "",
          "type": "address"
        }
      ],
      "stateMutability": "view",
      "type": "function"
    },
    {
      "inputs": [],
      "name": "totalLentAmount",
      "outputs": [
        {
          "internalType": "uint256",
          "name": "",
          "type": "uint256"
        }
      ],
      "stateMutability": "view",
      "type": "function"
    },
    {
      "inputs": [
        {
          "internalType": "uint256",
          "name": "_amount",
          "type": "uint256"
        }
      ],
      "name": "borrow",
      "outputs": [],
      "stateMutability": "nonpayable",
      "type": "function"
    },
    {
      "inputs": [],
      "name": "lend",
      "outputs": [],
      "stateMutability": "payable",
      "type": "function"
    },
    {
      "inputs": [],
      "name": "repay",
      "outputs": [],
      "stateMutability": "payable",
      "type": "function"
    },
    {
      "inputs": [],
      "name": "getContractBalance",
      "outputs": [
        {
          "internalType": "uint256",
          "name": "",
          "type": "uint256"
        }
      ],
      "stateMutability": "view",
      "type": "function"
    }
  ],
  "bytecode": "0x608060405234801561000f575f80fd5b506040516107ae3803806107ae83398101604081905261002e91610047565b5f80546001600160a01b0319163317905560015561005e565b5f60208284031215610057575f80fd5b5051919050565b6107438061006b5f395ff3fe608060405260043610610079575f3560e01c80636f9fb98a1161004c5780636f9fb98a1461010e5780638da5cb5b1461012057806397dffc6114610156578063c5ebeaec1461015e575f80fd5b806328fd10d71461007d578063402d8883146100cc57806343f7f740146100d6578063449e765d146100f9575b5f80fd5b348015610088575f80fd5b506100b2610097366004610653565b60036020525f90815260409020805460019091015460ff1682565b604080519283529015156020830152015b60405180910390f35b6100d461017d565b005b3480156100e1575f80fd5b506100eb60025481565b6040519081526020016100c3565b348015610104575f80fd5b506100eb60015481565b348015610119575f80fd5b50476100eb565b34801561012b575f80fd5b505f5461013e906001600160a01b031681565b6040516001600160a01b0390911681526020016100c3565b6100d4610334565b348015610169575f80fd5b506100d4610178366004610680565b61047b565b5f34116101e15760405162461bcd60e51b815260206004820152602760248201527f52657061796d656e7420616d6f756e74206d75737420626520677265617465726044820152660207468616e20360cc1b60648201526084015b60405180910390fd5b335f9081526003602052604090206001015460ff1661023b5760405162461bcd60e51b81526020600482015260166024820152752cb7ba9030b932903737ba1030903137b93937bbb2b960511b60448201526064016101d8565b335f9081526003602052604081205460015490919060649061025d90846106ab565b61026791906106c8565b90505f61027482846106e7565b90508034146102c55760405162461bcd60e51b815260206004820152601a60248201527f496e636f72726563742072657061796d656e7420616d6f756e7400000000000060448201526064016101d8565b5f80546040516001600160a01b039091169184156108fc02918591818181858888f193505050501580156102fb573d5f803e3d5ffd5b50335f908152600360205260408120818155600101805460ff191690556002805485929061032a9084906106fa565b9091555050505050565b5f341161038e5760405162461bcd60e51b815260206004820152602260248201527f4c656e7420616d6f756e74206d7573742062652067726561746572207468616e604482015261020360f41b60648201526084016101d8565b335f9081526003602052604090206001015460ff16156103f05760405162461bcd60e51b815260206004820152601a60248201527f596f752061726520616c7265616479206120626f72726f77657200000000000060448201526064016101d8565b6040805180820182523480825260016020808401828152335f90815260039092529481209351845593519201805460ff191692151592909217909155600280549192909161043f9084906106e7565b909155505060405134815233907f26ff3f6dedac6d273c293b8c866e073f40896739d99ad513862fe7ba70cf63ca9060200160405180910390a2565b5f81116104d95760405162461bcd60e51b815260206004820152602660248201527f426f72726f77656420616d6f756e74206d75737420626520677265617465722060448201526507468616e20360d41b60648201526084016101d8565b335f9081526003602052604090206001015460ff161561053b5760405162461bcd60e51b815260206004820152601860248201527f596f752061726520616c72656164792061206c656e646572000000000000000060448201526064016101d8565b5f60646001548361054c91906106ab565b61055691906106c8565b90505f61056382846106e7565b9050478111156105c85760405162461bcd60e51b815260206004820152602a60248201527f4e6f7420656e6f7567682066756e647320696e2074686520636f6e747261637460448201526920746f20626f72726f7760b01b60648201526084016101d8565b60408051808201825284815260016020808301828152335f90815260039092529381209251835592519101805460ff1916911515919091179055600280548592906106149084906106e7565b909155505060405183815233907fac59582e5396aca512fa873a2047e7f4c80f8f55d4a06cb34a78a0187f62719f9060200160405180910390a2505050565b5f60208284031215610663575f80fd5b81356001600160a01b0381168114610679575f80fd5b9392505050565b5f60208284031215610690575f80fd5b5035919050565b634e487b7160e01b5f52601160045260245ffd5b80820281158282048414176106c2576106c2610697565b92915050565b5f826106e257634e487b7160e01b5f52601260045260245ffd5b500490565b808201808211156106c2576106c2610697565b818103818111156106c2576106c261069756fea2646970667358221220de6978add4f5044792b9e521e088fe0e2ea22014950f8b9d5bf1eb309e1fd04e64736f6c63430008150033",
  "immutableReferences": {},
  "source": "// SPDX-License-Identifier: MIT\r\npragma solidity ^0.8.0;\r\n\r\ncontract LendingContract {\r\n    address public owner;\r\n    uint256 public lendingRate; // Static interest rate in percentage\r\n    uint256 public totalLentAmount;\r\n    \r\n    struct Lender {\r\n        uint256 lentAmount;\r\n        bool exists;\r\n    }\r\n    \r\n    mapping(address => Lender) public lenders;\r\n    \r\n    event Borrowed(address indexed borrower, uint256 amount);\r\n    event Lent(address indexed lender, uint256 amount);\r\n    \r\n    constructor(uint256 _lendingRate) {\r\n        owner = msg.sender;\r\n        lendingRate = _lendingRate;\r\n    }\r\n    \r\n    modifier onlyOwner() {\r\n        require(msg.sender == owner, \"Only the owner can call this function\");\r\n        _;\r\n    }\r\n    \r\n    function borrow(uint256 _amount) external {\r\n        require(_amount > 0, \"Borrowed amount must be greater than 0\");\r\n        require(!lenders[msg.sender].exists, \"You are already a lender\");\r\n        \r\n        // Calculate the interest to be repaid\r\n        uint256 interest = (_amount * lendingRate) / 100;\r\n        uint256 totalToRepay = _amount + interest;\r\n        \r\n        require(totalToRepay <= address(this).balance, \"Not enough funds in the contract to borrow\");\r\n        \r\n        // Update lender's data\r\n        lenders[msg.sender] = Lender(_amount, true);\r\n        totalLentAmount += _amount;\r\n        \r\n        // Emit the Borrowed event\r\n        emit Borrowed(msg.sender, _amount);\r\n    }\r\n    \r\n    function lend() external payable {\r\n        require(msg.value > 0, \"Lent amount must be greater than 0\");\r\n        require(!lenders[msg.sender].exists, \"You are already a borrower\");\r\n        \r\n        // Update lender's data\r\n        lenders[msg.sender] = Lender(msg.value, true);\r\n        totalLentAmount += msg.value;\r\n        \r\n        // Emit the Lent event\r\n        emit Lent(msg.sender, msg.value);\r\n    }\r\n    \r\n    function repay() external payable {\r\n        require(msg.value > 0, \"Repayment amount must be greater than 0\");\r\n        require(lenders[msg.sender].exists, \"You are not a borrower\");\r\n        \r\n        uint256 amountToRepay = lenders[msg.sender].lentAmount;\r\n        uint256 interest = (amountToRepay * lendingRate) / 100;\r\n        uint256 totalToRepay = amountToRepay + interest;\r\n        \r\n        require(msg.value == totalToRepay, \"Incorrect repayment amount\");\r\n        \r\n        // Transfer the interest to the contract owner\r\n        payable(owner).transfer(interest);\r\n        \r\n        // Clear borrower's data\r\n        delete lenders[msg.sender];\r\n        totalLentAmount -= amountToRepay;\r\n    }\r\n    \r\n    function getContractBalance() external view returns (uint256) {\r\n        return address(this).balance;\r\n    }\r\n}\r\n",
  "sourcePath": "C:\\Users\\Victus\\Documents\\projects\\blockchain\\client\\contracts\\LendingContract.sol",
  "compiler": {
    "name": "solc",
    "version": "0.8.21+commit.d9974bed.Emscripten.clang"
  },
  "schemaVersion": "3.4.15",
  "updatedAt": "2023-09-01T16:12:29.476Z",
  "devdoc": {
    "kind": "dev",
    "methods": {},
    "version": 1
  },
  "userdoc": {
    "kind": "user",
    "methods": {},
    "version": 1
  }
}